:020000040800F2
:100000005805002045010008AB13000875120008D0
:10001000A9130008B1010008C9160008000000007B
:100020000000000000000000000000005701000870
:10003000C1010008000000005B010008AD130008CA
:100040005F0100085F0100085F0100085F01000810
:100050005F0100085F0100085F0100085F01000800
:100060005F0100085F0100085F0100085F010008F0
:100070005F0100085F0100085F010008B50100088A
:100080005F0100085F0100085F0100085F010008D0
:100090005F0100085F0100085F0100085F010008C0
:1000A0005F0100085F0100085F0100085F010008B0
:1000B0005F0100085F0100085F0100085F010008A0
:1000C0005F0100085F0100085F0100085F01000890
:1000D0005F010008BD1600085F0100085F0100080D
:1000E0005F0100085F0100085F0100085F01000870
:1000F0005F0100085F0100085F0100085F01000860
:100100005F0100085F0100085F0100085F0100084F
:100110005F0100085F0100085F0100084514000846
:100120005F0100085F0100085F0100085F0100082F
:10013000DFF80CD000F02AF80048004779180008D2
:10014000580500200648804706480047FEE7FEE7BE
:10015000FEE7FEE7FEE7FEE7FEE7FEE7FEE7FEE777
:10016000FD13000831010008D2B201E000F8012BB4
:10017000491EFBD270470022F6E710B513460A4627
:1001800004461946FFF7F0FF204610BD064C074D08
:1001900006E0E06840F0010394E807009847103457
:1001A000AC42F6D3FFF7C8FFB0180008D01800081B
:1001B000FEE70000014800F09DB80000100100209B
:1001C000704770472DE9F05F90F821100024022954
:1001D00003D004218163012485E001680A6822F0CC
:1001E0000E020A6001680A6822F001020A603F4EAE
:1001F0003E4FB215DFF8F4C0DFF8F090DFF8ECA066
:10020000DFF8E8B0DFF8E4E00168783F1301150299
:10021000ACF1640CA9F15009AAF13C0AABF1280B2E
:10022000AEF1140E4FF48018B14227D9B9420ED066
:10023000614512D049451DD0514518D0594518D0B7
:10024000714501D1424615E0294EB14201D101224A
:1002500010E0274E1436B14201D110220AE0244E9C
:100260002836B14206D0224A3C32914201D11A4688
:1002700000E02A461E49091F0A602BE0B94213D04C
:10028000614517D0494522D051451DD059451DD053
:10029000714501D142461AE0B14202D14FF080725D
:1002A00015E0134EB14201D1012210E0104E143678
:1002B000B14201D110220AE00D4E2836B14206D0DB
:1002C0000B4A3C32914201D11A4600E02A460749C6
:1002D00080394A60012180F82110002180F8201027
:1002E000416B01B188472046BDE8F09F8000024085
:1002F000080402402DE9F05FC16B0A6801680B68D1
:10030000046C4FF0040808FA04F8844D844E854FBD
:10031000DFF814C2DFF81492DFF814A2DFF814B289
:10032000DFF814E218EA020F65D05FEA437862D57D
:100330000A68920603D40A6822F004020A60DFF811
:10034000F0814FF48062016808F11408130114026F
:10035000414524D9A9420DD0B1420FD0B9421AD09B
:10036000614515D0494515D0514501D1120312E020
:10037000594501D104220EE0714501D140220AE025
:100380006D4D1435A94206D06B4A2832914201D1F5
:100390001A4600E022466749091F0A6029E0A9427F
:1003A00013D0B14215D0B94220D061451BD0494588
:1003B0001BD0514502D14FF4800217E0414502D1D4
:1003C0004FF0806212E0594501D104220EE07145E0
:1003D00001D140220AE0584D1435A94206D0564AB0
:1003E0002832914201D11A4600E022464B49083991
:1003F0004A60C16A71E04FF0020808FA04F818EA8E
:10040000020F70D05FEA83786DD50A68920606D431
:100410000A6822F00A020A60012180F82110DFF840
:1004200010814FF40072016808F1140813011402DE
:10043000414524D9A9420DD0B1420FD0B9421AD0BA
:10044000614515D0494515D0514501D1120312E03F
:10045000594501D102220EE0714501D120220AE066
:10046000354D1435A94206D0334A2832914201D184
:100470001A4600E022462F49091F0A6029E0A942D6
:1004800013D0B14215D0B94220D061451BD04945A7
:100490001BD0514502D14FF4001217E0414502D163
:1004A0004FF0007212E0594501D102220EE0714571
:1004B00001D120220AE0204D1435A94206D01E4A5F
:1004C0002832914201D11A4600E0224613490839E8
:1004D0004A60002180F82010816A00291CD0BDE804
:1004E000F05F0847FFE70825A540154214D01A071A
:1004F00012D50A6822F00E020A6090F84020C36B01
:10050000012101FA02F25A60816380F82110002172
:1005100080F82010016BE0E7BDE8F09F0800024082
:100520001C000240300002404400024058000240DB
:100530006C000240080402401C04024030B560B167
:100540001A4B026814219A4209D2194B1344B3FB87
:10055000F1F18900016417490AE0012030BD134B15
:100560005B421344B3FBF1F1890001640F49083980
:10057000C163022180F82110136843F6F0718B43A8
:10058000F0E901142143D0E902452C4321430469D9
:1005900021434469214384692143194311600021A7
:1005A0004163012242770177084630BD08040240CA
:1005B000F8FFFDBF000002402DE9F84FDFF8C891B9
:1005C000002409F1040A0AF1040B23460F270BF15A
:1005D000040ED1E00125A54006EA0502AA4276D123
:1005E000DFF8A8C14E68A6EB0C0866452BD00DDCE1
:1005F000032E34D005DC36B3012E19D0022E2FD1B4
:100600001BE0112E16D0122E2AD119E0B8F5881F42
:1006100019D006DCB8F5803F15D0B8F5801F1FD182
:1006200011E0B8F5001F0ED0B8F5041F18D10AE08C
:10063000CB6815E0CB681B1D12E0CB6808330FE0D8
:10064000CB680C330CE08B682BB1012B4FF0080307
:1006500003D0456104E0042302E0056100E00023CB
:10066000FF2A01D8064601E000F104064FEA84059E
:1006700001D9A5F12005D6F8008007FA05FC28EA83
:100680000C0803FA05F548EA0508C6F800804D682D
:10069000ED0070D53E4DAE6946F00106AE61AD6924
:1006A00024F0030605F0010500953A4D06EB050C14
:1006B000DCF80850A607360F07FA06F825EA080501
:1006C000DFF8D480404503D14FF0000825E052E028
:1006D000DFF8C880404502D14FF001081DE0DFF887
:1006E000C080404502D14FF0020816E0DFF8B48028
:1006F000404502D14FF003080FE0DFF8AC804045E1
:1007000002D14FF0040808E0DFF8A080404502D194
:100710004FF0050801E04FF0060808FA06F848EA2D
:100720000508CCF808804D68D9F80060ED034D4607
:1007300001D5164300E096432E604D68DAF800605C
:10074000AD03554601D5164300E096432E604D6833
:10075000DBF80060ED025D4601D5164300E09643EC
:100760002E604D68DEF80060AD02754601D5164377
:1007700000E096432E60641C0A681646E2407FF44F
:1007800029AFBDE8F88F00000004014000001110FF
:10079000001002400000014000080140000C014030
:1007A000001001400014014000180140001C0140ED
:1007B0008068084000D0012070470AB1016170478D
:1007C0000904FBE701488068704700000000002032
:1007D000024881680278114481607047000000205F
:1007E000074810B5016841F010010160032000F0D6
:1007F00075F8002000F006F800F024F8002010BD85
:100800000020024070B50D4D04464FF47A712878EF
:10081000B1FBF0F00A490968B1FBF0F000F0ECFA26
:1008200048B9102C07D200222146501E00F036F89D
:1008300000206C6070BD012070BD00000000002031
:100840000C0000200C4808B5816941F0010181616C
:10085000816901F001010091C16941F08051C161DC
:10086000C06900F0805000900448416821F0E061C8
:1008700041F08061416008BD00100240000001406D
:10088000002809DB00F01F0201219140400980008F
:1008900000F1E020C0F8001170470000F0B40E4BEA
:1008A0001B680C46C3F30223C3F10705042D00D9CE
:1008B0000425191D072901D2002300E0DB1E0126B3
:1008C00006FA05F1491E214099409E40761E1640C9
:1008D0003143F0BC00F0F9BE0CED00E0064900F039
:1008E000070208684FF6FF03184040EA0220034A57
:1008F00010430860704700000CED00E00000FA05AE
:100900002DE9F0470F46050061D0434E306800F0F6
:100910000700B84209D2306820F007003843306041
:10092000306800F00700B84251D128683B4C81077D
:1009300012D5400703D5606840F4E0606060287815
:10094000000703D5606840F4605060606068A96883
:1009500020F0F000084360602878C00728D068685D
:10096000012810D02168022810D0890700292EDA2A
:10097000616821F0030101436160FFF723FF8046B6
:1009800041F288390DE021688903EFE78901EDE73D
:10099000FFF718FFA0EB0801494502D90320BDE885
:1009A000F0876068696800F00C00B0EB810FEFD150
:1009B000306800F00700B8420BD9306820F007001B
:1009C00038433060306800F00700B84201D00120A1
:1009D000E5E72878400705D56068E96820F4E0601D
:1009E000084360602878000706D56068296920F40C
:1009F000605040EAC100606000F038F86168084A61
:100A0000C1F30311515CC8400649086006480068FC
:100A1000FFF7F8FE0020C2E700200240001002406D
:100A2000961800080C000020040000200448054926
:100A300000684968044AC1F30221515CC84070470C
:100A40000C00002000100240A618000804480549C8
:100A500000684968044AC1F3C221515CC84070472C
:100A60000C00002000100240A618000812A185B05A
:100A70000FC98DE80F0014A0144A00680490516853
:100A8000134801F00C03042B10D0082B0ED1C1F336
:100A90008343C9031DF803000AD5516804AAC1F3B2
:100AA0004041515C0A4A5043B0FBF1F005B0704739
:100AB00008494843FAE7000002030405060708094D
:100AC0000A0B0C0D0E0F1010010200000010024066
:100AD00000127A0000093D002DE9F84F040070D0A3
:100AE0002078C04DC00749D06868C0F38100012854
:100AF00007D06868C0F38100022809D16868C00384
:100B000006D52868800339D560680028E7D035E02D
:100B10006068B0F5803F0BD010B1B0F5A02F11D0B8
:100B2000286820F480302860286820F4802002E0C3
:100B3000286840F480302860606890B1FFF742FE7A
:100B400006460AE0286840F480202860F0E700BFED
:100B5000FFF738FE801B642873D828688003F7D518
:100B60000CE0FFF72FFE064605E000BFFFF72AFE68
:100B7000801B6428F0D828688003F7D420789A4E28
:100B800080074FF001094FF0000839D5686810F070
:100B90000C0F07D06868C0F38100022809D168688B
:100BA000C00306D42868800714D52069012808D11D
:100BB00010E02069B0B1C6F80090FFF703FE0746C9
:100BC00005E00AE1FFF7FEFDC01B0228C4D8286833
:100BD0008007F7D52868616920F0F80040EAC10075
:100BE00028600DE0C6F80080FFF7ECFD074604E042
:100BF000FFF7E8FDC01B022823D828688007F7D438
:100C0000207800072CD57948A169D9B1C0F80090A7
:100C1000FFF7D8FD074604E0FFF7D4FDC01B02280C
:100C20000FD8686A8007F7D571484FF4FA51006809
:100C3000B0FBF1F0009000BF0098411E0091FAD285
:100C40000EE080E0C0F80080FFF7BCFD074604E03E
:100C5000FFF7B8FDC01B022875D8686A8007F7D473
:100C60002078400760D5E8690027C00008D4E8690B
:100C700040F08050E861E869012700F08050009062
:100C80005C480168C90513D40168834641F480714A
:100C90000160FFF797FD824606E000BFFFF792FD77
:100CA000A0EB0A0064284ED8DBF80000C005F5D59B
:100CB000E06801280AD008B1052813D0286A20F07E
:100CC00001002862286A20F0040002E0286A40F04F
:100CD00001002862E06841F2883B98B1FFF772FD9D
:100CE00082460BE0286A40F004002862EEE700BF6D
:100CF000FFF768FDA0EB0A0159455AD8286A80071A
:100D0000F6D50CE0FFF75EFD824605E0FFF75AFDE1
:100D1000A0EB0A0159454CD8286A8007F6D41FB1C8
:100D2000E86920F08050E861E06988B36968C1F340
:100D30008101022944D00228C6F8608004D0FFF760
:100D400041FD044638E034E0FFF73CFD074604E08F
:100D5000FFF738FDC01B02282BD828688001F7D484
:100D6000206AB0F5803F05D16868A16820F40030A2
:100D700008436860D4E908010843696821F47411E4
:100D800008436860C6F86090FFF71CFD044606E063
:100D900025E000BFFFF716FD001B022809D82868D0
:100DA0008001F7D51BE000BFFFF70CFD001B0228F8
:100DB00002D90320BDE8F88F28688001F4D40EE042
:100DC0000128F7D06868226A00F48031914204D18A
:100DD000616A00F47010884201D00120EAE7002027
:100DE000E8E7000000100240000042428004424256
:100DF0000C0000200070004010B5401EB0F1807F54
:100E000001D3012010BD4FF0E02460610F21601775
:100E100000F05BFC0020A06107202061002010BDD5
:100E20007047704770B590F83C20012A19D0012412
:100E300000F83C4F0222427050F83C3C5A689D68D2
:100E400022F070060A684968324325F0800529437C
:100E50005A6050F83C2C91604470002101700846A3
:100E600070BD022070BD10B5040003D094F83D00A1
:100E700010B107E0012010BD002084F83C0020469E
:100E800000F00CF8022084F83D00211D206800F0DD
:100E9000DFFA012084F83D00002010BD08B500688D
:100EA0000B49884212D10B48C16941F02001C16150
:100EB000C069002200F02000009005213720FFF7D4
:100EC000EDFCBDE808403720FFF7DABC08BD0000A4
:100ED0000014004000100240704770B504460068DE
:100EE00001694FF00005C943890715D4C168C9439A
:100EF000890711D4E91E01610120207720688069EB
:100F00008007204602D0FFF7E7FF04E000F098F8E2
:100F1000204600F096F8257720680169C943490703
:100F200017D4C168C943490713D46FF004010161A4
:100F3000022020772068806910F4407F204602D08C
:100F4000FFF7CAFF04E000F07BF8204600F079F8D4
:100F5000257720680169C943090716D4C168C943C8
:100F6000090712D46FF0080101610420207720687E
:100F7000C0698007204602D0FFF7AEFF04E000F012
:100F80005FF8204600F05DF8257720680169C943C5
:100F9000C90617D4C168C943C90613D46FF010013C
:100FA0000161082020772068C06910F4407F204646
:100FB00002D0FFF791FF04E000F042F8204600F075
:100FC00040F8257720680169C943C90708D1C1687D
:100FD000C943C90704D1891E0161204600F032F8D7
:100FE00020680169C943090609D4C168C9430906D3
:100FF00005D46FF0800101612046FFF711FF2068E2
:101000000169C943490609D4C168C943490605D4E1
:101010006FF040010161204600F015F82068016979
:10102000C94389060BD4C168C943890607D46FF048
:10103000200101612046BDE87040FFF7F2BE70BD9F
:1010400070477047704770477047000070B502687E
:1010500004461068D168536910F00F0F50D003F0A8
:10106000010501F4907635435DD0C20705D0CA056D
:1010700003D5E26B42F00102E263420705D5DA07CD
:1010800003D0E26B42F00202E263820705D5DA0781
:1010900003D0E26B42F00402E263020705D5DA07EF
:1010A00003D0E26B42F00802E263E26B002A33D025
:1010B000800604D5880602D5204600F025FA20686F
:1010C0004069E16BC0F38010090700D428B32046C3
:1010D00000F00CFA2068416949061AD5416921F0EF
:1010E00040014161606BA0B11B494163606BFFF738
:1010F00069F8002810D0606B416BBDE8704008476C
:10110000830610D58B060ED52046BDE8704000F052
:10111000FBB92046FFF798FF70BD2046FFF794FF0C
:101120000020E06370BD030606D50B0604D52046FB
:10113000BDE8704000F090BA4006F3D54806F1D5FE
:10114000D168204621F04001D160202184F8391077
:1011500000F08FF870BD0000DD14000870B50400C9
:1011600004D094F83900002510B106E0012070BDCC
:1011700084F83850204600F023F8242084F8390001
:101180002068C16821F40051C160204600F008FACF
:101190002068016921F4904101612068416921F0D2
:1011A0002A0141612068C16841F40051C160E563D2
:1011B000202084F8390084F83A00002070BD000037
:1011C00070B586B0002506460095019502950395F9
:1011D0000068224988423FD12149886940F4804013
:1011E0008861886900F480400490886940F00400B8
:1011F000886188691B4C00F0040004904815009039
:10120000022001900320039069462046FFF7D4F99D
:101210002015CDE90005694620460295FFF7CCF977
:10122000124C1148C4E900058020C4E90250256130
:1012300080016561C4E906502046FFF77FF908B1D7
:10124000FEF7BFFF74630022052125206662FFF7C9
:1012500025FB2520FFF714FB06B070BD00380140C8
:101260000010024000080140580002401001002018
:1012700070477047FEE70000094808B5416941F032
:10128000010141614069002200F001000090114617
:101290000F20FFF703FBBDE808400F20FFF7F0BA6F
:1012A0000010024070B586B000241C4800940194E0
:1012B00002940394816941F010018161816901F018
:1012C00010010491816941F008018161816901F097
:1012D00008010491816941F0040181618069104E27
:1012E00000F004004FF47F45049000222946304668
:1012F000FFF763FAFF20CDE900046946094802942C
:10130000FFF75AF901200095CDE90104022003906E
:1013100069463046FFF750F906B070BD0010024034
:10132000000C0140001001401CB500240F4800943F
:101330000D490194016041F61F41C0E901140921E2
:10134000C16080218161FFF78EFD08B1FEF739FF92
:101350000094694605480194FFF764FD002801D018
:10136000FEF72FFF1CBD000000140040900000207D
:101370000C4810B50A4901604FF4E1314160002189
:1013800081600C22C160C0E904128161C161FFF774
:10139000E5FE002803D0BDE81040FEF712BF10BDE7
:1013A00000380140D0000020FEE77047FFF710BA78
:1013B00030B58FB028216846FEF7DDFE14210AA85B
:1013C000FEF7D9FE0224012004900094102005901D
:1013D00000254FF46010CDE9085007946846FFF7E8
:1013E0007BFB0AA90F2081E831006002CDE90D05E1
:1013F00002210AA8FFF784FA0FB030BD0D4801683A
:1014000041F00101016041680B4A114041600168EF
:101410000A4A11400160016821F48021016041689D
:1014200021F4FE0141604FF41F0181600449C003B3
:1014300008607047001002400000FFF8FFFFF6FE52
:1014400008ED00E00148FFF748BD000090000020D3
:10145000F0B502681C4B1D4D1D4E1E4F1E4C4FF02B
:10146000804C984209D0A04207D0604505D0A842E0
:1014700003D0B04201D0B84204D122F0700E4A68C5
:1014800042EA0E02984209D0A04207D0604505D03A
:10149000A84203D0B04201D0B84203D122F4407533
:1014A000CA682A434D6922F080022A4302608A6892
:1014B000C2620A688262984201D0A04201D10969E1
:1014C000016301214161F0BD002C01400004004096
:1014D00000080040000C00400034014010B5406A94
:1014E0000021C185C184FFF7AFFD10BD0168CA6846
:1014F00022F49072CA6001684A6922F001024A61CE
:10150000202180F83A10704710B590F83A1022293F
:1015100001D0022010BD8168B1F5805F11D0016952
:10152000002901681FD0496801F07F03816A4A1CC5
:1015300082620B70C18D491E0904090CC18518D047
:101540002BE00269816A002A0268526805D0D2B293
:101550000A80816A491C8162ECE7C2F308020A80B2
:10156000816A891CF7E74A68816A4B1C83620A70AA
:10157000E0E70168CA6822F02002CA600168CA6810
:1015800022F48072CA6001684A6922F001024A614D
:10159000202180F83A10FFF76BFE002010BD0000FC
:1015A0002DE9F041044600680169E26821F44051E8
:1015B000114301612169A0680843616908432168FA
:1015C000CA6841F20C639A430243CA6020684169C9
:1015D000A26921F44071114341611E4920686425CC
:1015E0003226884202D1FFF731FA01E0FFF71EFAF6
:1015F00000EBC00101EB001160686FF0180780007C
:10160000B1FBF0F2B2FBF5F2B1FBF0F37A4303EB7E
:101610008202B1FBF0F306EB0212B2FBF5F2B3FB70
:10162000F5F302F0F00202EB0312B1FBF0F3B1FBB1
:10163000F0F0B0FBF5F0784303EB800006EB001010
:10164000B0FBF5F0216800F00F0010448860BDE8A1
:10165000F08100000038014090F83910212901D0B4
:10166000022070478168B1F5805F016A0BD04A1C87
:101670000262026809785160C18C491E0904090C94
:10168000C1840ED017E009880268C1F308015160D7
:1016900001690029016A02D0491C0162ECE7891C3A
:1016A000FBE70168CA6822F08002CA600068C1686E
:1016B00041F04001C1600020704700000148FFF781
:1016C000C5BC0000D0000020FEE70907090E002875
:1016D00004DB00F1E02080F80014704700F00F00F8
:1016E00000F1E02080F8141D704702E008C8121FC6
:1016F00008C1002AFAD170477047002001E001C1FB
:10170000121F002AFBD170472DE9F05F0021574CD2
:101710000125002004EB01121318401CC0B25D70BB
:101720000828F9D3491CC9B20829F2D3DFF840913F
:1017300025704FF48061C4F80C90618125744900D4
:10174000C4F81C90618384F820504900C4F82C90A0
:10175000618584F830504900C4F83C906187484660
:1017600084F840504900E064A4F84A1084F85050CE
:101770004900E065A4F85A10002184F860104FF485
:101780008078E066A4F86A8084F87010E067DFF87B
:10179000E4A04FF4007BA4F87AB04FF0113150462A
:1017A000CAF8001000BF00BF00BFC16841F0FF01D0
:1017B000C16000BF00BF00BF5FF0000604EB06176A
:1017C00001227989F868FEF7F8FF00BF00BF798928
:1017D0000022F868FEF7F1FF761CF6B2062EEDD374
:1017E0000122464641464F464846FEF7E6FF0122A3
:1017F00059463846FEF7E1FF4FF04431CAF8001071
:10180000002231463846FEF7D8FF00BF5FF00006E1
:1018100005FA06F081B2E06EFEF7CAFFA119761C48
:10182000F6B281F86100082EF2D301224146384613
:10183000FEF7C3FF002259463846FEF7BEFF00BF41
:101840005FF0000605FA06F081B2E06FFEF7B0FF28
:10185000A119761CF6B281F87100082EF2D3414628
:101860003846BDE8F05F0122FEF7A7BF1000002058
:10187000000C014000100140FEF7B2FFFFF798FD99
:10188000FFF710FDFFF7F8FCFFF772FDFFF74CFDC7
:10189000FFF73AFFFEE70000000000000000010231
:1018A0000304060708090000000001020304000009
:1018B000D01800080000002010000000EA16000800
:1018C000E01800081000002048050000FA16000883
:1018D0000100000010000000000000000024F400DF
:0400000508000131BD
:00000001FF
